:060000000A128A110C280F
:10000800FE00030EF0000A08F1000A128A114D28BA
:100018000A128A110F28F501F60183010A128A11C2
:10002800152880308316031381008316031789016E
:100038008B170B130B16FF308316031386008701EB
:10004800831203138701F501F601831203130714C2
:100058000330F4008A30F3005530F200F20B3228F6
:10006800F30B3228F40B32283928831203130710B4
:100078000330F4008A30F3005530F200F20B4228C6
:10008800F30B4228F40B4228492829280A128A111E
:100098000C288B1C502851286D288B10750376046A
:1000A800031D572858285B28F501F6015F28013001
:1000B800F5000030F60075037604031D64286528F2
:1000C8006A2883120313871463006D2883120313AD
:1000D800871071088A00700E8300FE0E7E0E0900DC
:08400000FF3FFF3FFF3FFF3FC0
:04400E00F43FFF3F3D
:00000001FF
